:060000000A128A110C280F
:10000800FE00030EF5000A08F6000A128A116F288E
:100018000A128A110F28F001F101F201F30183019C
:100028000A128A119C2883120313861B1C281D2878
:1000380022280A128A11AA200A128A11831203138B
:10004800861F272828282D280A128A1180200A129C
:100058008A1183120313061B3228332838280A1200
:100068008A11A5200A128A1183120313061F3D283C
:100078003E2843280A128A118F200A128A11080082
:1000880083160317880189018316031385018312D8
:1000980003138501831603138617061783120313A8
:1000A80086018316031387018312031387018316BE
:1000B8000313880183120313880183160313811322
:1000C8008B178B1595171517961716170F168F166A
:1000D8000F120F1408000B1C7228732879280B10B4
:1000E8000A128A1117200A128A1176088A00750ED8
:1000F8008300FE0E7E0E090072037304031D85281B
:1001080086288E280130F4007408831203138807A8
:10011800F201F301080070037104031D9428952867
:100128009B280130831203138802F001F1010800B3
:100138000A128A1144200A128A11A1280A128A1165
:100148000C280130F0000030F10008000130F20006
:060158000030F300080076
:08400000FF3FFF3FFF3FFF3FC0
:04400E00D420FF3F7C
:00000001FF
