:060000000A128A110C280F
:10000800FE00030EF2000A08F3000A128A114E29B4
:100018000A128A110F2883133030FD000130FE00C8
:10002800BC30FF00203084000A128A11AD210A1268
:100038008A11BA01BB01BC01BD01BE01BF01F501B6
:10004800F601F701F80183010A128A116A2983125D
:100058000313B501B11F312832283928B009B10975
:10006800B00A0319B10AB501B50AB31F3C283D28E7
:100078004628B209B309B20A0319B30A0130F400D9
:100088007408B506B601B7013008310403194D28C4
:100098004E288528B401B40A5C2801300310B00D3D
:1000A800B10DFF3E031D52280130F4007408B40757
:1000B800B11F5F286028512801300310B60DB70D15
:1000C800FF3E031D612831083302031D6D283008E7
:1000D8003202031C7028712878283008B2023108CF
:1000E800031CB303B302361401300310B10CB00C77
:1000F800FF3E031D79280130B402031D842885289A
:1001080060283508031989288A288F28B609B7096D
:10011800B60A0319B70A3708B1003608B000080054
:1001280083120313061B99289A289E280130F7008A
:100138000030F800061FA128A228B9287703780400
:10014800031DA728A828B9280D30F100FB30F000BE
:10015800F00BAC28F10BAC28B1280130F000700886
:10016800831203138807F701F801861BBC28BD28F2
:10017800C1280130BE000030BF00861FC428C52832
:10018800DA283E033F04031DCA28CB28DA280D309D
:10019800F100FB30F000F00BCF28F10BCF28D4286A
:1001A8000130831203138802BE01BF0108000F301B
:1001B800750583120313BC0000307605BD001030AE
:1001C800B0000030B1007608B3007508B2000A121A
:1001D8008A112B200A128A11831203133108BB00DB
:1001E8003008BA003C08203E8400831300088500CC
:1001F80007148710073083120313B9007C30B80046
:10020800B80B0429B90B04290000831203133A0818
:10021800203E8400831300088500071087140730E8
:1002280083120313B9007C30B800B80B1929B90B35
:100238001929000008008316031788012030890057
:100248008316031385018312031385018316031391
:1002580086170617061483120313860183160313E1
:1002680087018312031387018316031388018312FE
:10027800031388018316031381138B170B178B1530
:100288000C1795171517961716170F168F160F12A6
:100298000F1408000B1C5129522958290A128A11D7
:1002A80094200A128A110B10831203130C1F5D2964
:1002B8005E2963290A128A1195210A128A11730884
:1002C8008A00720E8300FE0E7E0E09000A128A1141
:1002D8001F210A128A110A128A1180210A128A1110
:1002E800831203139F140A128A11DB200A128A113F
:1002F80074290A128A110C28831203139F131F17DB
:10030800831603139F121F129F13831203139F1642
:100318001F169F111F111F142130F400F40B92298E
:100328000800831203130C131E08F000F101700873
:10033800F5007108F6000D30F100FB30F000F00B0D
:10034800A329F10BA329A82908007E088A007F08A1
:1003580082000A128A11A9210A128A118000840ACD
:1003680004087D0603190034FF0A0319FE0AAD29A3
:100378003F3406345B344F3466346D347D3407348F
:100388007F34673477347C3439345E34793471346B
:08400000FF3FFF3FFF3FFF3FC0
:04400E00D420FF3F7C
:00000001FF
